:020000040000FA
:020000001028C6
:10000800FE00030E83120313A0000408A1000A08CF
:10001800A2007F08A300A12A11284423B500432386
:10002800FD00AC01AD01AE01AF01B001B101B201FB
:10003800B301B401FC018301B52A83120313A7009D
:10004800A801A901851D362851283A30290298307F
:1000580003192802031838280130A8070318A90A29
:100068000030A907851D29280130AC070318AD0AFF
:100078000030AD072708A500A6012D082602031D9C
:1000880047282C082502031808002408A500A60103
:100098002508AC002608AD000800051A08006128EC
:1000A8003A302902983003192802031863280130CE
:1000B800A8070318A90A0030A907051E542801300B
:1000C800AC020030031CAD03AD022408A500A60154
:1000D80026082D02031D722825082C020318080083
:1000E8002708A500A6012508AC002608AD000800D1
:1000F800831203132F1C0800AE1FBA2835080319F2
:100108009F28051485100A30F0000030F1002E08F1
:100118007F39F900FA017908F2007A08F300D7204C
:100128007008013E8400EC22FB007B078312031356
:100138008600B5010800051085140A30F00000306B
:10014800F1002E087F39F900FA017908F2007A08DF
:10015800F30030217008013E8400EC22FB007B078D
:10016800831203138600B501B50A08000518BE28D6
:100178008518C028051085140A30F0000030F100F9
:100188002E087F39F900FA017908F2007A08F3009D
:1001980030217008013E8400EC22FB007B078312AB
:1001A800031386000800F601F11FE128F009F109A0
:1001B800F00A0319F10AF601F60AF31FEC28F2090E
:1001C800F309F20A0319F30A0130F4007408F60679
:1001D800F701F8017008710403192329F501F50ADC
:1001E800F11B022901300310F00DF10DFF3E031D34
:1001F800F7280130F4007408F507F42801300310DB
:10020800F70DF80DFF3E031D032971087302031D46
:100218000F2970087202031C18297008F20271086D
:10022800031CF303F302771401300310F10CF00CF4
:10023800FF3E031D19290130F502031D0229760826
:1002480003192B29F709F809F70A0319F80A780896
:10025800F1007708F0000800F601F31F3A29F209C7
:10026800F309F20A0319F30AF601F60AF11F412904
:10027800F009F109F00A0319F10A70087104031969
:100288006E29F501F50AF11B552901300310F00D0F
:10029800F10DFF3E031D4A290130F4007408F507EB
:1002A800472971087302031D5B2970087202031C39
:1002B80063297008F2027108031CF303F30201308A
:1002C8000310F10CF00CFF3E031D64290130F50208
:1002D800031D5529760803197629F209F309F20A4C
:1002E8000319F30A7308F1007208F00008000130DE
:1002F800F7007708FD077C147D188429FC148529EC
:10030800FC100530F0000030F1007D08F700F8011E
:100318007708F2007808F300302170087104031D93
:1003280097297C1598297C110A30F0000030F100DB
:100338007D08F700F8017708F2007808F30030210B
:1003480070087104031DAA29FC15AB29FC1164303F
:10035800F0000030F1007D08F700F8017708F2009E
:100368007808F300302170087104031DBD297C163C
:10037800BE297C1264307D06031D0800FD01FD0ABC
:100388000800831203130519CF293008031DCF294C
:10039800B001B00A0800300803190800051D08005C
:1003A800B0010130F0007008B107E32933140800E8
:1003B80033100800B3140800B310B1010800310865
:1003C800F000F1017108003A0319EB29F9297008C6
:1003D800013A0319DA29033A0319DC29013A031906
:1003E800DE29073A0319E029F92908003C3083126D
:1003F8000313A8002808A4003408C8228312031392
:10040800A9002908B2008513AE173208031908009D
:10041800330CA800280C0339023A031D08002E08E3
:10042800320680393206AE00092A013083120313DE
:10043800AC000030AD00AE1383120313331C2E2A18
:100448002E082C0680392C06AE00A401A40A093017
:100458002120202A2C08AA00AA0E33082A060F39C0
:100468002A06B3000800013083120313AC000030E1
:10047800AD00AE1783120313B31C4C2A2E082C06AA
:1004880080392C06AE00A401A40A633021203E2A3C
:100498002C08AA00AA0E33082A060F392A06B30028
:1004A800080083120313330E0F39A4002408B20086
:1004B8008517AE136B2A330CA400240C0339023AB7
:1004C800031D6E2A2E08320680393206AE00320825
:1004D800031D5F2A851308001C3083120313A40030
:1004E80024088316031385047F3083120313A400A2
:1004F80024088316031385057F3083120313A40091
:1005080024088505F330B305080007308312031368
:100518009F00FC30A4002408831603138505FC30D3
:1005280083120313A40024088505013083160313DE
:10053800860083120313860108000B1DA82A0B11DD
:10054800643081007B21FC22831203132308FF00FF
:1005580022088A0021088400200E8300FE0E7E0EE9
:1005680009008312031333080F399038B300B4011C
:10057800B40A2F233923831203133308F3390838B5
:10058800B300DB220C23C52A83120313A700A6019C
:10059800271CD22A2408A5002508A6070310A40DA5
:1005A8000310A70C2708031DCC2A2608080083126D
:1005B8000313330CAB002B0C0339013A031D08005D
:1005C800331CE82A19220800B31C08003722080047
:1005D80002308A000408840A820700343F34063453
:1005E8005B344F3466346D347D3407347F346F3474
:1005F8007C1CFF2A3D23FC1C022B46237C1D052B5B
:100608004523FC1D082B3F237C1E080041230800BE
:1006180083120313330CAA002A0C0339023A031D70
:1006280008005522FA21080083120313330CF00046
:10063800700C0339023A031D08000130B2020800A9
:100648008B178B1685308316031381006430831251
:100658000313810008008922702234232423080010
:10066800831203132F1086010800831203132F141B
:1006780008007C200800C521080018230800013460
:0606880001340800080027
:02400E0038DF99
:00000001FF
